{
    "contractName": "KuLocker",
    "abi": [
        {
            "anonymous": false,
            "inputs": [
                {
                    "indexed": true,
                    "internalType": "address",
                    "name": "previousOwner",
                    "type": "address"
                },
                {
                    "indexed": true,
                    "internalType": "address",
                    "name": "newOwner",
                    "type": "address"
                }
            ],
            "name": "OwnershipTransferred",
            "type": "event"
        },
        {
            "anonymous": false,
            "inputs": [
                {
                    "indexed": true,
                    "internalType": "address",
                    "name": "tokenAddress",
                    "type": "address"
                },
                {
                    "indexed": true,
                    "internalType": "address",
                    "name": "sender",
                    "type": "address"
                },
                {
                    "indexed": false,
                    "internalType": "uint256",
                    "name": "amount",
                    "type": "uint256"
                },
                {
                    "indexed": false,
                    "internalType": "uint256",
                    "name": "unlockTime",
                    "type": "uint256"
                },
                {
                    "indexed": false,
                    "internalType": "uint256",
                    "name": "depositId",
                    "type": "uint256"
                }
            ],
            "name": "TokensLocked",
            "type": "event"
        },
        {
            "anonymous": false,
            "inputs": [
                {
                    "indexed": true,
                    "internalType": "address",
                    "name": "tokenAddress",
                    "type": "address"
                },
                {
                    "indexed": true,
                    "internalType": "address",
                    "name": "receiver",
                    "type": "address"
                },
                {
                    "indexed": false,
                    "internalType": "uint256",
                    "name": "amount",
                    "type": "uint256"
                }
            ],
            "name": "TokensWithdrawn",
            "type": "event"
        },
        {
            "inputs": [
                {
                    "internalType": "uint256",
                    "name": "",
                    "type": "uint256"
                }
            ],
            "name": "allDepositIds",
            "outputs": [
                {
                    "internalType": "uint256",
                    "name": "",
                    "type": "uint256"
                }
            ],
            "stateMutability": "view",
            "type": "function"
        },
        {
            "inputs": [],
            "name": "depositId",
            "outputs": [
                {
                    "internalType": "uint256",
                    "name": "",
                    "type": "uint256"
                }
            ],
            "stateMutability": "view",
            "type": "function"
        },
        {
            "inputs": [
                {
                    "internalType": "address",
                    "name": "",
                    "type": "address"
                },
                {
                    "internalType": "uint256",
                    "name": "",
                    "type": "uint256"
                }
            ],
            "name": "depositsByTokenAddress",
            "outputs": [
                {
                    "internalType": "uint256",
                    "name": "",
                    "type": "uint256"
                }
            ],
            "stateMutability": "view",
            "type": "function"
        },
        {
            "inputs": [
                {
                    "internalType": "address",
                    "name": "",
                    "type": "address"
                },
                {
                    "internalType": "uint256",
                    "name": "",
                    "type": "uint256"
                }
            ],
            "name": "depositsByWithdrawalAddress",
            "outputs": [
                {
                    "internalType": "uint256",
                    "name": "",
                    "type": "uint256"
                }
            ],
            "stateMutability": "view",
            "type": "function"
        },
        {
            "inputs": [],
            "name": "getAllDepositIds",
            "outputs": [
                {
                    "internalType": "uint256[]",
                    "name": "",
                    "type": "uint256[]"
                }
            ],
            "stateMutability": "view",
            "type": "function"
        },
        {
            "inputs": [
                {
                    "internalType": "uint256",
                    "name": "_id",
                    "type": "uint256"
                }
            ],
            "name": "getDepositDetails",
            "outputs": [
                {
                    "internalType": "address",
                    "name": "",
                    "type": "address"
                },
                {
                    "internalType": "address",
                    "name": "",
                    "type": "address"
                },
                {
                    "internalType": "uint256",
                    "name": "",
                    "type": "uint256"
                },
                {
                    "internalType": "uint256",
                    "name": "",
                    "type": "uint256"
                },
                {
                    "internalType": "bool",
                    "name": "",
                    "type": "bool"
                }
            ],
            "stateMutability": "view",
            "type": "function"
        },
        {
            "inputs": [
                {
                    "internalType": "address",
                    "name": "_tokenAddress",
                    "type": "address"
                }
            ],
            "name": "getDepositsByTokenAddress",
            "outputs": [
                {
                    "internalType": "uint256[]",
                    "name": "",
                    "type": "uint256[]"
                }
            ],
            "stateMutability": "view",
            "type": "function"
        },
        {
            "inputs": [
                {
                    "internalType": "address",
                    "name": "_withdrawalAddress",
                    "type": "address"
                }
            ],
            "name": "getDepositsByWithdrawalAddress",
            "outputs": [
                {
                    "internalType": "uint256[]",
                    "name": "",
                    "type": "uint256[]"
                }
            ],
            "stateMutability": "view",
            "type": "function"
        },
        {
            "inputs": [
                {
                    "internalType": "address",
                    "name": "_tokenAddress",
                    "type": "address"
                },
                {
                    "internalType": "address",
                    "name": "_walletAddress",
                    "type": "address"
                }
            ],
            "name": "getTokenBalanceByAddress",
            "outputs": [
                {
                    "internalType": "uint256",
                    "name": "",
                    "type": "uint256"
                }
            ],
            "stateMutability": "view",
            "type": "function"
        },
        {
            "inputs": [
                {
                    "internalType": "address",
                    "name": "_tokenAddress",
                    "type": "address"
                }
            ],
            "name": "getTotalTokenBalance",
            "outputs": [
                {
                    "internalType": "uint256",
                    "name": "",
                    "type": "uint256"
                }
            ],
            "stateMutability": "view",
            "type": "function"
        },
        {
            "inputs": [],
            "name": "kcsFee",
            "outputs": [
                {
                    "internalType": "uint256",
                    "name": "",
                    "type": "uint256"
                }
            ],
            "stateMutability": "view",
            "type": "function"
        },
        {
            "inputs": [
                {
                    "internalType": "address",
                    "name": "_tokenAddress",
                    "type": "address"
                },
                {
                    "internalType": "uint256",
                    "name": "_amount",
                    "type": "uint256"
                },
                {
                    "internalType": "uint256",
                    "name": "_unlockTime",
                    "type": "uint256"
                },
                {
                    "internalType": "bool",
                    "name": "_feeInKcs",
                    "type": "bool"
                }
            ],
            "name": "lockTokens",
            "outputs": [
                {
                    "internalType": "uint256",
                    "name": "_id",
                    "type": "uint256"
                }
            ],
            "stateMutability": "payable",
            "type": "function"
        },
        {
            "inputs": [
                {
                    "internalType": "uint256",
                    "name": "",
                    "type": "uint256"
                }
            ],
            "name": "lockedToken",
            "outputs": [
                {
                    "internalType": "address",
                    "name": "tokenAddress",
                    "type": "address"
                },
                {
                    "internalType": "address",
                    "name": "withdrawalAddress",
                    "type": "address"
                },
                {
                    "internalType": "uint256",
                    "name": "tokenAmount",
                    "type": "uint256"
                },
                {
                    "internalType": "uint256",
                    "name": "unlockTime",
                    "type": "uint256"
                },
                {
                    "internalType": "bool",
                    "name": "withdrawn",
                    "type": "bool"
                }
            ],
            "stateMutability": "view",
            "type": "function"
        },
        {
            "inputs": [],
            "name": "lpFeePercent",
            "outputs": [
                {
                    "internalType": "uint256",
                    "name": "",
                    "type": "uint256"
                }
            ],
            "stateMutability": "view",
            "type": "function"
        },
        {
            "inputs": [],
            "name": "owner",
            "outputs": [
                {
                    "internalType": "address",
                    "name": "",
                    "type": "address"
                }
            ],
            "stateMutability": "view",
            "type": "function"
        },
        {
            "inputs": [],
            "name": "remainingKcsFees",
            "outputs": [
                {
                    "internalType": "uint256",
                    "name": "",
                    "type": "uint256"
                }
            ],
            "stateMutability": "view",
            "type": "function"
        },
        {
            "inputs": [],
            "name": "renounceOwnership",
            "outputs": [],
            "stateMutability": "nonpayable",
            "type": "function"
        },
        {
            "inputs": [
                {
                    "internalType": "uint256",
                    "name": "fee",
                    "type": "uint256"
                }
            ],
            "name": "setKcsFee",
            "outputs": [],
            "stateMutability": "nonpayable",
            "type": "function"
        },
        {
            "inputs": [
                {
                    "internalType": "uint256",
                    "name": "percent",
                    "type": "uint256"
                }
            ],
            "name": "setLpFee",
            "outputs": [],
            "stateMutability": "nonpayable",
            "type": "function"
        },
        {
            "inputs": [
                {
                    "internalType": "address",
                    "name": "",
                    "type": "address"
                }
            ],
            "name": "tokensFees",
            "outputs": [
                {
                    "internalType": "uint256",
                    "name": "",
                    "type": "uint256"
                }
            ],
            "stateMutability": "view",
            "type": "function"
        },
        {
            "inputs": [],
            "name": "totalKcsFees",
            "outputs": [
                {
                    "internalType": "uint256",
                    "name": "",
                    "type": "uint256"
                }
            ],
            "stateMutability": "view",
            "type": "function"
        },
        {
            "inputs": [
                {
                    "internalType": "address",
                    "name": "newOwner",
                    "type": "address"
                }
            ],
            "name": "transferOwnership",
            "outputs": [],
            "stateMutability": "nonpayable",
            "type": "function"
        },
        {
            "inputs": [
                {
                    "internalType": "address",
                    "name": "",
                    "type": "address"
                },
                {
                    "internalType": "address",
                    "name": "",
                    "type": "address"
                }
            ],
            "name": "walletTokenBalance",
            "outputs": [
                {
                    "internalType": "uint256",
                    "name": "",
                    "type": "uint256"
                }
            ],
            "stateMutability": "view",
            "type": "function"
        },
        {
            "inputs": [
                {
                    "internalType": "address payable",
                    "name": "withdrawalAddress",
                    "type": "address"
                }
            ],
            "name": "withdrawFees",
            "outputs": [],
            "stateMutability": "nonpayable",
            "type": "function"
        },
        {
            "inputs": [
                {
                    "internalType": "uint256",
                    "name": "_id",
                    "type": "uint256"
                }
            ],
            "name": "withdrawTokens",
            "outputs": [],
            "stateMutability": "nonpayable",
            "type": "function"
        }
    ],
    "bytecode": "6080604052674563918244f40000600255600a6003556000600455600060055534801561002b57600080fd5b506100353361003e565b6001805561008e565b600080546001600160a01b038381166001600160a01b0319831681178455604051919092169283917f8be0079c531659141344cd1fd0a4f28419497f9722a3daafe3b4186f6b6457e09190a35050565b611ad98061009d6000396000f3fe6080604052600436106101665760003560e01c806384dfbfe2116100d1578063b9e7df1c1161008a578063d4dbe3ef11610064578063d4dbe3ef146104ef578063e6a478b314610505578063e83025f814610518578063f2fde38b1461053857600080fd5b8063b9e7df1c1461043e578063bb941cff14610476578063c9028aff146104cf57600080fd5b806384dfbfe21461031057806386f65a2214610330578063890db72f146103505780638da5cb5b146103e05780639852099c14610408578063adad19bd1461041e57600080fd5b8063347c80ba11610123578063347c80ba1461024a5780633fd97b9b14610290578063530680d8146102b05780635d3c0e10146102d05780636ba03924146102e6578063715018a6146102fb57600080fd5b80630bd59ad31461016b5780630cff87f1146101a1578063164e68de146101dc5780631d719809146101fe5780632c8a5f6114610214578063315a095d1461022a575b600080fd5b34801561017757600080fd5b5061018b61018636600461181f565b610558565b604051610198919061193a565b60405180910390f35b3480156101ad57600080fd5b506101ce6101bc36600461181f565b60076020526000908152604090205481565b604051908152602001610198565b3480156101e857600080fd5b506101fc6101f736600461181f565b6105c4565b005b34801561020a57600080fd5b506101ce60055481565b34801561022057600080fd5b506101ce60045481565b34801561023657600080fd5b506101fc610245366004611908565b610768565b34801561025657600080fd5b506101ce61026536600461183c565b6001600160a01b039182166000908152600d6020908152604080832093909416825291909152205490565b34801561029c57600080fd5b506101ce6102ab366004611875565b610de4565b3480156102bc57600080fd5b506101ce6102cb366004611875565b610e15565b3480156102dc57600080fd5b506101ce60025481565b3480156102f257600080fd5b5061018b610e31565b34801561030757600080fd5b506101fc610e89565b34801561031c57600080fd5b506101fc61032b366004611908565b610ebf565b34801561033c57600080fd5b5061018b61034b36600461181f565b610f35565b34801561035c57600080fd5b506103ab61036b366004611908565b6000908152600a6020526040902080546001820154600283015460038401546004909401546001600160a01b039384169593909216939092909160ff1690565b604080516001600160a01b0396871681529590941660208601529284019190915260608301521515608082015260a001610198565b3480156103ec57600080fd5b506000546040516001600160a01b039091168152602001610198565b34801561041457600080fd5b506101ce60085481565b34801561042a57600080fd5b506101ce61043936600461181f565b610f9f565b34801561044a57600080fd5b506101ce61045936600461183c565b600d60209081526000928352604080842090915290825290205481565b34801561048257600080fd5b506103ab610491366004611908565b600a60205260009081526040902080546001820154600283015460038401546004909401546001600160a01b03938416949390921692909160ff1685565b3480156104db57600080fd5b506101ce6104ea366004611908565b61101f565b3480156104fb57600080fd5b506101ce60035481565b6101ce6105133660046118a1565b611040565b34801561052457600080fd5b506101fc610533366004611908565b6115d6565b34801561054457600080fd5b506101fc61055336600461181f565b611648565b6001600160a01b0381166000908152600b60209081526040918290208054835181840281018401909452808452606093928301828280156105b857602002820191906000526020600020905b8154815260200190600101908083116105a4575b50505050509050919050565b6000546001600160a01b031633146105f75760405162461bcd60e51b81526004016105ee9061197e565b60405180910390fd5b6005541561063d576005546040516001600160a01b0383169180156108fc02916000818181858888f19350505050158015610636573d6000803e3d6000fd5b5060006005555b60065460015b81811161074557600060066106588385611a0c565b8154811061066857610668611a54565b60009182526020808320909101546001600160a01b03168083526007909152604090912054909150801561071a5760405163a9059cbb60e01b81526001600160a01b0386811660048301526024820183905283169063a9059cbb90604401602060405180830381600087803b1580156106e057600080fd5b505af11580156106f4573d6000803e3d6000fd5b505050506040513d601f19601f8201168201806040525081019061071891906118eb565b505b506001600160a01b03166000908152600760205260408120558061073d81611a23565b915050610643565b5060408051600081526020810191829052516107639160069161176a565b505050565b6000818152600a60205260409020600301544210156107bd5760405162461bcd60e51b8152602060048201526011602482015270151bdad95b9cc8185c99481b1bd8dad959607a1b60448201526064016105ee565b6000818152600a602052604090206004015460ff161561081f5760405162461bcd60e51b815260206004820152601860248201527f546f6b656e7320616c72656164792077697468647261776e000000000000000060448201526064016105ee565b6000818152600a60205260409020600101546001600160a01b0316331461089f5760405162461bcd60e51b815260206004820152602e60248201527f43616e2077697468647261772066726f6d20746865206164647265737320757360448201526d656420666f72206c6f636b696e6760901b60648201526084016105ee565b6000818152600a60205260409081902080546001820154600290920154925163a9059cbb60e01b81526001600160a01b039283166004820181905260248201859052929091169290839063a9059cbb90604401602060405180830381600087803b15801561090c57600080fd5b505af1158015610920573d6000803e3d6000fd5b505050506040513d601f19601f8201168201806040525081019061094491906118eb565b6109905760405162461bcd60e51b815260206004820152601960248201527f4661696c656420746f207472616e7366657220746f6b656e730000000000000060448201526064016105ee565b6000848152600a60209081526040808320600401805460ff191660011790556001600160a01b0386168352600d82528083203384529091529020546109d581836116e3565b6001600160a01b038086166000908152600d602090815260408083203384528252808320949094559186168152600b90915290812054819081610a19600183611a0c565b67ffffffffffffffff811115610a3157610a31611a6a565b604051908082528060200260200182016040528015610a5a578160200160208202803683370190505b509050600092505b81831015610b95576001600160a01b0387166000908152600b6020526040902080548a919085908110610a9757610a97611a54565b90600052602060002001541415610b30578293505b610ab7600183611a0c565b841015610b2b576001600160a01b0387166000908152600b60205260409020610ae18560016119b3565b81548110610af157610af1611a54565b9060005260206000200154818581518110610b0e57610b0e611a54565b602090810291909101015283610b2381611a23565b945050610aac565b610b95565b6001600160a01b0387166000908152600b60205260409020805484908110610b5a57610b5a611a54565b9060005260206000200154818481518110610b7757610b77611a54565b60200260200101818152505082610b8d81611a23565b935050610a62565b6001600160a01b0387166000908152600b602090815260409091208251610bbe928401906117cf565b506001600160a01b0388166000908152600c602052604081205490610be4600183611a0c565b67ffffffffffffffff811115610bfc57610bfc611a6a565b604051908082528060200260200182016040528015610c25578160200160208202803683370190505b509050600094505b81851015610d60576001600160a01b038a166000908152600c6020526040902080548c919087908110610c6257610c62611a54565b90600052602060002001541415610cfb578495505b610c82600183611a0c565b861015610cf6576001600160a01b038a166000908152600c60205260409020610cac8760016119b3565b81548110610cbc57610cbc611a54565b9060005260206000200154818781518110610cd957610cd9611a54565b602090810291909101015285610cee81611a23565b965050610c77565b610d60565b6001600160a01b038a166000908152600c60205260409020805486908110610d2557610d25611a54565b9060005260206000200154818681518110610d4257610d42611a54565b60200260200101818152505084610d5881611a23565b955050610c2d565b6001600160a01b038a166000908152600c602090815260409091208251610d89928401906117cf565b50886001600160a01b03168a6001600160a01b03167f6337ed398c0e8467698c581374fdce4db14922df487b5a39483079f5f59b60a48a604051610dcf91815260200190565b60405180910390a35050505050505050505050565b600c6020528160005260406000208181548110610e0057600080fd5b90600052602060002001600091509150505481565b600b6020528160005260406000208181548110610e0057600080fd5b60606009805480602002602001604051908101604052809291908181526020018280548015610e7f57602002820191906000526020600020905b815481526020019060010190808311610e6b575b5050505050905090565b6000546001600160a01b03163314610eb35760405162461bcd60e51b81526004016105ee9061197e565b610ebd60006116f6565b565b6000546001600160a01b03163314610ee95760405162461bcd60e51b81526004016105ee9061197e565b60008111610f305760405162461bcd60e51b815260206004820152601460248201527314195c98d95b9d081a5cc81d1bdbc81cdb585b1b60621b60448201526064016105ee565b600355565b6001600160a01b0381166000908152600c60209081526040918290208054835181840281018401909452808452606093928301828280156105b857602002820191906000526020600020908154815260200190600101908083116105a45750505050509050919050565b6040516370a0823160e01b81523060048201526000906001600160a01b038316906370a082319060240160206040518083038186803b158015610fe157600080fd5b505afa158015610ff5573d6000803e3d6000fd5b505050506040513d601f19601f820116820180604052508101906110199190611921565b92915050565b6009818154811061102f57600080fd5b600091825260209091200154905081565b600080841161109d5760405162461bcd60e51b8152602060048201526024808201527f546f6b656e7320616d6f756e74206d75737420626520677265617465722074686044820152630616e20360e41b60648201526084016105ee565b6402540be400831061110d5760405162461bcd60e51b815260206004820152603360248201527f556e69782074696d657374616d70206d75737420626520696e207365636f6e64604482015272732c206e6f74206d696c6c697365636f6e647360681b60648201526084016105ee565b42831161115c5760405162461bcd60e51b815260206004820152601d60248201527f556e6c6f636b2074696d65206d75737420626520696e2066757475726500000060448201526064016105ee565b81158061116a575060025434115b6111ad5760405162461bcd60e51b815260206004820152601460248201527312d0d4c8199959481b9bdd081c1c9bdd9a59195960621b60448201526064016105ee565b60405163095ea7b360e01b8152306004820152602481018590526001600160a01b0386169063095ea7b390604401602060405180830381600087803b1580156111f557600080fd5b505af1158015611209573d6000803e3d6000fd5b505050506040513d601f19601f8201168201806040525081019061122d91906118eb565b6112795760405162461bcd60e51b815260206004820152601860248201527f4661696c656420746f20617070726f766520746f6b656e73000000000000000060448201526064016105ee565b6040516323b872dd60e01b8152336004820152306024820152604481018590526001600160a01b038616906323b872dd90606401602060405180830381600087803b1580156112c757600080fd5b505af11580156112db573d6000803e3d6000fd5b505050506040513d601f19601f820116820180604052508101906112ff91906118eb565b6113575760405162461bcd60e51b815260206004820152602360248201527f4661696c656420746f207472616e7366657220746f6b656e7320746f206c6f6360448201526235b2b960e91b60648201526084016105ee565b8382156113835760045461136b9034611746565b60045560055461137b9034611746565b60055561145c565b60006113a66103e86113a06003548561175290919063ffffffff16565b9061175e565b90506113b282826116e3565b6001600160a01b03881660009081526007602052604090205490925061141e57600680546001810182556000919091527ff652222313e28459528d920b65115c16c04f3efc82aaedc97be59f3f377c0d3f0180546001600160a01b0319166001600160a01b0389161790555b6001600160a01b0387166000908152600760205260409020546114419082611746565b6001600160a01b038816600090815260076020526040902055505b6001600160a01b0386166000908152600d6020908152604080832033845290915290205461148a9086611746565b6001600160a01b0387166000908152600d60209081526040808320338085529252822092909255600880549091906114c190611a23565b91829055506000818152600a6020908152604080832080546001600160a01b038d81166001600160a01b03199283168117845560018085018054938b16939094168317909355600284018a9055600384018d90556004909301805460ff19169055600980548084019091557f6e1540171b6c0c960b71a7020d9f60077f6af931a8bbf590da0223dacf75c7af018790558552600b84528285208054808301825590865284862001869055818552600c84528285208054918201815585529383902090930184905560085481518b81529283018a90529082015291945033917fa6782d3322abbfbe850e6d5c5c78e8e1df603ea07608bb9a62dd83f40d4feccc9060600160405180910390a35050949350505050565b6000546001600160a01b031633146116005760405162461bcd60e51b81526004016105ee9061197e565b600081116116435760405162461bcd60e51b815260206004820152601060248201526f119959481a5cc81d1bdbc81cdb585b1b60821b60448201526064016105ee565b600255565b6000546001600160a01b031633146116725760405162461bcd60e51b81526004016105ee9061197e565b6001600160a01b0381166116d75760405162461bcd60e51b815260206004820152602660248201527f4f776e61626c653a206e6577206f776e657220697320746865207a65726f206160448201526564647265737360d01b60648201526084016105ee565b6116e0816116f6565b50565b60006116ef8284611a0c565b9392505050565b600080546001600160a01b038381166001600160a01b0319831681178455604051919092169283917f8be0079c531659141344cd1fd0a4f28419497f9722a3daafe3b4186f6b6457e09190a35050565b60006116ef82846119b3565b60006116ef82846119ed565b60006116ef82846119cb565b8280548282559060005260206000209081019282156117bf579160200282015b828111156117bf57825182546001600160a01b0319166001600160a01b0390911617825560209092019160019091019061178a565b506117cb92915061180a565b5090565b8280548282559060005260206000209081019282156117bf579160200282015b828111156117bf5782518255916020019190600101906117ef565b5b808211156117cb576000815560010161180b565b60006020828403121561183157600080fd5b81356116ef81611a80565b6000806040838503121561184f57600080fd5b823561185a81611a80565b9150602083013561186a81611a80565b809150509250929050565b6000806040838503121561188857600080fd5b823561189381611a80565b946020939093013593505050565b600080600080608085870312156118b757600080fd5b84356118c281611a80565b9350602085013592506040850135915060608501356118e081611a95565b939692955090935050565b6000602082840312156118fd57600080fd5b81516116ef81611a95565b60006020828403121561191a57600080fd5b5035919050565b60006020828403121561193357600080fd5b5051919050565b6020808252825182820181905260009190848201906040850190845b8181101561197257835183529284019291840191600101611956565b50909695505050505050565b6020808252818101527f4f776e61626c653a2063616c6c6572206973206e6f7420746865206f776e6572604082015260600190565b600082198211156119c6576119c6611a3e565b500190565b6000826119e857634e487b7160e01b600052601260045260246000fd5b500490565b6000816000190483118215151615611a0757611a07611a3e565b500290565b600082821015611a1e57611a1e611a3e565b500390565b6000600019821415611a3757611a37611a3e565b5060010190565b634e487b7160e01b600052601160045260246000fd5b634e487b7160e01b600052603260045260246000fd5b634e487b7160e01b600052604160045260246000fd5b6001600160a01b03811681146116e057600080fd5b80151581146116e057600080fdfea2646970667358221220accc85fc445bf08c7edc172f998fed01ed87a55f13e80f658ca74bd670dc754964736f6c63430008070033",
    "sourcePath": "c:/Users/aceso/Desktop/Kulocker/contracts/KuLocker.sol",
    "compiler": {
        "name": "solc",
        "version": "0.8.7+commit.e28d00a7"
    },
    "functionHashes": {
        "allDepositIds(uint256)": "c9028aff",
        "depositId()": "9852099c",
        "depositsByTokenAddress(address,uint256)": "3fd97b9b",
        "depositsByWithdrawalAddress(address,uint256)": "530680d8",
        "getAllDepositIds()": "6ba03924",
        "getDepositDetails(uint256)": "890db72f",
        "getDepositsByTokenAddress(address)": "86f65a22",
        "getDepositsByWithdrawalAddress(address)": "0bd59ad3",
        "getTokenBalanceByAddress(address,address)": "347c80ba",
        "getTotalTokenBalance(address)": "adad19bd",
        "kcsFee()": "5d3c0e10",
        "lockTokens(address,uint256,uint256,bool)": "e6a478b3",
        "lockedToken(uint256)": "bb941cff",
        "lpFeePercent()": "d4dbe3ef",
        "owner()": "8da5cb5b",
        "remainingKcsFees()": "1d719809",
        "renounceOwnership()": "715018a6",
        "setKcsFee(uint256)": "e83025f8",
        "setLpFee(uint256)": "84dfbfe2",
        "tokensFees(address)": "0cff87f1",
        "totalKcsFees()": "2c8a5f61",
        "transferOwnership(address)": "f2fde38b",
        "walletTokenBalance(address,address)": "b9e7df1c",
        "withdrawFees(address)": "164e68de",
        "withdrawTokens(uint256)": "315a095d"
    },
    "gasEstimates": {
        "creation": {
            "codeDepositCost": "1374600",
            "executionCost": "103602",
            "totalCost": "1478202"
        },
        "external": {
            "allDepositIds(uint256)": "4664",
            "depositId()": "2406",
            "depositsByTokenAddress(address,uint256)": "4783",
            "depositsByWithdrawalAddress(address,uint256)": "4805",
            "getAllDepositIds()": "infinite",
            "getDepositDetails(uint256)": "11118",
            "getDepositsByTokenAddress(address)": "infinite",
            "getDepositsByWithdrawalAddress(address)": "infinite",
            "getTokenBalanceByAddress(address,address)": "infinite",
            "getTotalTokenBalance(address)": "infinite",
            "kcsFee()": "2384",
            "lockTokens(address,uint256,uint256,bool)": "infinite",
            "lockedToken(uint256)": "11112",
            "lpFeePercent()": "2339",
            "owner()": "2390",
            "remainingKcsFees()": "2385",
            "renounceOwnership()": "28247",
            "setKcsFee(uint256)": "24575",
            "setLpFee(uint256)": "24510",
            "tokensFees(address)": "2559",
            "totalKcsFees()": "2407",
            "transferOwnership(address)": "infinite",
            "walletTokenBalance(address,address)": "infinite",
            "withdrawFees(address)": "infinite",
            "withdrawTokens(uint256)": "infinite"
        }
    }
}