{
  "contractName": "KuLocker",
  "abi": [
    {
      "anonymous": false,
      "inputs": [
        {
          "indexed": true,
          "internalType": "address",
          "name": "previousOwner",
          "type": "address"
        },
        {
          "indexed": true,
          "internalType": "address",
          "name": "newOwner",
          "type": "address"
        }
      ],
      "name": "OwnershipTransferred",
      "type": "event"
    },
    {
      "anonymous": false,
      "inputs": [
        {
          "indexed": true,
          "internalType": "address",
          "name": "tokenAddress",
          "type": "address"
        },
        {
          "indexed": true,
          "internalType": "address",
          "name": "sender",
          "type": "address"
        },
        {
          "indexed": false,
          "internalType": "uint256",
          "name": "amount",
          "type": "uint256"
        },
        {
          "indexed": false,
          "internalType": "uint256",
          "name": "unlockTime",
          "type": "uint256"
        },
        {
          "indexed": false,
          "internalType": "uint256",
          "name": "depositId",
          "type": "uint256"
        }
      ],
      "name": "TokensLocked",
      "type": "event"
    },
    {
      "anonymous": false,
      "inputs": [
        {
          "indexed": true,
          "internalType": "address",
          "name": "tokenAddress",
          "type": "address"
        },
        {
          "indexed": true,
          "internalType": "address",
          "name": "receiver",
          "type": "address"
        },
        {
          "indexed": false,
          "internalType": "uint256",
          "name": "amount",
          "type": "uint256"
        }
      ],
      "name": "TokensWithdrawn",
      "type": "event"
    },
    {
      "inputs": [
        {
          "internalType": "uint256",
          "name": "",
          "type": "uint256"
        }
      ],
      "name": "allDepositIds",
      "outputs": [
        {
          "internalType": "uint256",
          "name": "",
          "type": "uint256"
        }
      ],
      "stateMutability": "view",
      "type": "function",
      "constant": true
    },
    {
      "inputs": [],
      "name": "depositId",
      "outputs": [
        {
          "internalType": "uint256",
          "name": "",
          "type": "uint256"
        }
      ],
      "stateMutability": "view",
      "type": "function",
      "constant": true
    },
    {
      "inputs": [
        {
          "internalType": "address",
          "name": "",
          "type": "address"
        },
        {
          "internalType": "uint256",
          "name": "",
          "type": "uint256"
        }
      ],
      "name": "depositsByTokenAddress",
      "outputs": [
        {
          "internalType": "uint256",
          "name": "",
          "type": "uint256"
        }
      ],
      "stateMutability": "view",
      "type": "function",
      "constant": true
    },
    {
      "inputs": [
        {
          "internalType": "address",
          "name": "",
          "type": "address"
        },
        {
          "internalType": "uint256",
          "name": "",
          "type": "uint256"
        }
      ],
      "name": "depositsByWithdrawalAddress",
      "outputs": [
        {
          "internalType": "uint256",
          "name": "",
          "type": "uint256"
        }
      ],
      "stateMutability": "view",
      "type": "function",
      "constant": true
    },
    {
      "inputs": [],
      "name": "kcsFee",
      "outputs": [
        {
          "internalType": "uint256",
          "name": "",
          "type": "uint256"
        }
      ],
      "stateMutability": "view",
      "type": "function",
      "constant": true
    },
    {
      "inputs": [
        {
          "internalType": "uint256",
          "name": "",
          "type": "uint256"
        }
      ],
      "name": "lockedToken",
      "outputs": [
        {
          "internalType": "address",
          "name": "tokenAddress",
          "type": "address"
        },
        {
          "internalType": "address",
          "name": "withdrawalAddress",
          "type": "address"
        },
        {
          "internalType": "uint256",
          "name": "tokenAmount",
          "type": "uint256"
        },
        {
          "internalType": "uint256",
          "name": "unlockTime",
          "type": "uint256"
        },
        {
          "internalType": "bool",
          "name": "withdrawn",
          "type": "bool"
        }
      ],
      "stateMutability": "view",
      "type": "function",
      "constant": true
    },
    {
      "inputs": [],
      "name": "lpFeePercent",
      "outputs": [
        {
          "internalType": "uint256",
          "name": "",
          "type": "uint256"
        }
      ],
      "stateMutability": "view",
      "type": "function",
      "constant": true
    },
    {
      "inputs": [],
      "name": "owner",
      "outputs": [
        {
          "internalType": "address",
          "name": "",
          "type": "address"
        }
      ],
      "stateMutability": "view",
      "type": "function",
      "constant": true
    },
    {
      "inputs": [],
      "name": "remainingKcsFees",
      "outputs": [
        {
          "internalType": "uint256",
          "name": "",
          "type": "uint256"
        }
      ],
      "stateMutability": "view",
      "type": "function",
      "constant": true
    },
    {
      "inputs": [],
      "name": "renounceOwnership",
      "outputs": [],
      "stateMutability": "nonpayable",
      "type": "function"
    },
    {
      "inputs": [
        {
          "internalType": "address",
          "name": "",
          "type": "address"
        }
      ],
      "name": "tokensFees",
      "outputs": [
        {
          "internalType": "uint256",
          "name": "",
          "type": "uint256"
        }
      ],
      "stateMutability": "view",
      "type": "function",
      "constant": true
    },
    {
      "inputs": [],
      "name": "totalKcsFees",
      "outputs": [
        {
          "internalType": "uint256",
          "name": "",
          "type": "uint256"
        }
      ],
      "stateMutability": "view",
      "type": "function",
      "constant": true
    },
    {
      "inputs": [
        {
          "internalType": "address",
          "name": "newOwner",
          "type": "address"
        }
      ],
      "name": "transferOwnership",
      "outputs": [],
      "stateMutability": "nonpayable",
      "type": "function"
    },
    {
      "inputs": [
        {
          "internalType": "address",
          "name": "",
          "type": "address"
        },
        {
          "internalType": "address",
          "name": "",
          "type": "address"
        }
      ],
      "name": "walletTokenBalance",
      "outputs": [
        {
          "internalType": "uint256",
          "name": "",
          "type": "uint256"
        }
      ],
      "stateMutability": "view",
      "type": "function",
      "constant": true
    },
    {
      "inputs": [
        {
          "internalType": "address",
          "name": "_tokenAddress",
          "type": "address"
        },
        {
          "internalType": "uint256",
          "name": "_amount",
          "type": "uint256"
        },
        {
          "internalType": "uint256",
          "name": "_unlockTime",
          "type": "uint256"
        },
        {
          "internalType": "bool",
          "name": "_feeInKcs",
          "type": "bool"
        }
      ],
      "name": "lockTokens",
      "outputs": [
        {
          "internalType": "uint256",
          "name": "_id",
          "type": "uint256"
        }
      ],
      "stateMutability": "payable",
      "type": "function",
      "payable": true
    },
    {
      "inputs": [
        {
          "internalType": "uint256",
          "name": "_id",
          "type": "uint256"
        }
      ],
      "name": "withdrawTokens",
      "outputs": [],
      "stateMutability": "nonpayable",
      "type": "function"
    },
    {
      "inputs": [
        {
          "internalType": "address",
          "name": "_tokenAddress",
          "type": "address"
        }
      ],
      "name": "getTotalTokenBalance",
      "outputs": [
        {
          "internalType": "uint256",
          "name": "",
          "type": "uint256"
        }
      ],
      "stateMutability": "view",
      "type": "function",
      "constant": true
    },
    {
      "inputs": [
        {
          "internalType": "address",
          "name": "_tokenAddress",
          "type": "address"
        },
        {
          "internalType": "address",
          "name": "_walletAddress",
          "type": "address"
        }
      ],
      "name": "getTokenBalanceByAddress",
      "outputs": [
        {
          "internalType": "uint256",
          "name": "",
          "type": "uint256"
        }
      ],
      "stateMutability": "view",
      "type": "function",
      "constant": true
    },
    {
      "inputs": [],
      "name": "getAllDepositIds",
      "outputs": [
        {
          "internalType": "uint256[]",
          "name": "",
          "type": "uint256[]"
        }
      ],
      "stateMutability": "view",
      "type": "function",
      "constant": true
    },
    {
      "inputs": [
        {
          "internalType": "uint256",
          "name": "_id",
          "type": "uint256"
        }
      ],
      "name": "getDepositDetails",
      "outputs": [
        {
          "internalType": "address",
          "name": "",
          "type": "address"
        },
        {
          "internalType": "address",
          "name": "",
          "type": "address"
        },
        {
          "internalType": "uint256",
          "name": "",
          "type": "uint256"
        },
        {
          "internalType": "uint256",
          "name": "",
          "type": "uint256"
        },
        {
          "internalType": "bool",
          "name": "",
          "type": "bool"
        }
      ],
      "stateMutability": "view",
      "type": "function",
      "constant": true
    },
    {
      "inputs": [
        {
          "internalType": "address",
          "name": "_withdrawalAddress",
          "type": "address"
        }
      ],
      "name": "getDepositsByWithdrawalAddress",
      "outputs": [
        {
          "internalType": "uint256[]",
          "name": "",
          "type": "uint256[]"
        }
      ],
      "stateMutability": "view",
      "type": "function",
      "constant": true
    },
    {
      "inputs": [
        {
          "internalType": "address",
          "name": "_tokenAddress",
          "type": "address"
        }
      ],
      "name": "getDepositsByTokenAddress",
      "outputs": [
        {
          "internalType": "uint256[]",
          "name": "",
          "type": "uint256[]"
        }
      ],
      "stateMutability": "view",
      "type": "function",
      "constant": true
    },
    {
      "inputs": [
        {
          "internalType": "uint256",
          "name": "fee",
          "type": "uint256"
        }
      ],
      "name": "setKcsFee",
      "outputs": [],
      "stateMutability": "nonpayable",
      "type": "function"
    },
    {
      "inputs": [
        {
          "internalType": "uint256",
          "name": "percent",
          "type": "uint256"
        }
      ],
      "name": "setLpFee",
      "outputs": [],
      "stateMutability": "nonpayable",
      "type": "function"
    },
    {
      "inputs": [
        {
          "internalType": "address payable",
          "name": "withdrawalAddress",
          "type": "address"
        }
      ],
      "name": "withdrawFees",
      "outputs": [],
      "stateMutability": "nonpayable",
      "type": "function"
    }
  ],
  "bytecode": "0x6080604052674563918244f40000600255600a6003556000600455600060055534801561002b57600080fd5b506100353361003e565b6001805561008e565b600080546001600160a01b038381166001600160a01b0319831681178455604051919092169283917f8be0079c531659141344cd1fd0a4f28419497f9722a3daafe3b4186f6b6457e09190a35050565b61206d8061009d6000396000f3fe6080604052600436106101965760003560e01c806384dfbfe2116100e1578063b9e7df1c1161008a578063d4dbe3ef11610064578063d4dbe3ef14610560578063e6a478b314610576578063e83025f814610589578063f2fde38b146105a957600080fd5b8063b9e7df1c146104a2578063bb941cff146104da578063c9028aff1461054057600080fd5b80638da5cb5b116100bb5780638da5cb5b146104375780639852099c1461046c578063adad19bd1461048257600080fd5b806384dfbfe21461034d57806386f65a221461036d578063890db72f1461038d57600080fd5b8063347c80ba116101435780635d3c0e101161011d5780635d3c0e101461030d5780636ba0392414610323578063715018a61461033857600080fd5b8063347c80ba1461027a5780633fd97b9b146102cd578063530680d8146102ed57600080fd5b80631d719809116101745780631d7198091461022e5780632c8a5f6114610244578063315a095d1461025a57600080fd5b80630bd59ad31461019b5780630cff87f1146101d1578063164e68de1461020c575b600080fd5b3480156101a757600080fd5b506101bb6101b6366004611dd4565b6105c9565b6040516101c89190611ee8565b60405180910390f35b3480156101dd57600080fd5b506101fe6101ec366004611dd4565b60076020526000908152604090205481565b6040519081526020016101c8565b34801561021857600080fd5b5061022c610227366004611dd4565b610642565b005b34801561023a57600080fd5b506101fe60055481565b34801561025057600080fd5b506101fe60045481565b34801561026657600080fd5b5061022c610275366004611eb8565b61087a565b34801561028657600080fd5b506101fe610295366004611df0565b73ffffffffffffffffffffffffffffffffffffffff9182166000908152600d6020908152604080832093909416825291909152205490565b3480156102d957600080fd5b506101fe6102e8366004611e28565b6110b3565b3480156102f957600080fd5b506101fe610308366004611e28565b6110e4565b34801561031957600080fd5b506101fe60025481565b34801561032f57600080fd5b506101bb611100565b34801561034457600080fd5b5061022c611158565b34801561035957600080fd5b5061022c610368366004611eb8565b6111cb565b34801561037957600080fd5b506101bb610388366004611dd4565b611287565b34801561039957600080fd5b506103f56103a8366004611eb8565b6000908152600a60205260409020805460018201546002830154600384015460049094015473ffffffffffffffffffffffffffffffffffffffff9384169593909216939092909160ff1690565b6040805173ffffffffffffffffffffffffffffffffffffffff96871681529590941660208601529284019190915260608301521515608082015260a0016101c8565b34801561044357600080fd5b5060005460405173ffffffffffffffffffffffffffffffffffffffff90911681526020016101c8565b34801561047857600080fd5b506101fe60085481565b34801561048e57600080fd5b506101fe61049d366004611dd4565b6112fe565b3480156104ae57600080fd5b506101fe6104bd366004611df0565b600d60209081526000928352604080842090915290825290205481565b3480156104e657600080fd5b506103f56104f5366004611eb8565b600a602052600090815260409020805460018201546002830154600384015460049094015473ffffffffffffffffffffffffffffffffffffffff938416949390921692909160ff1685565b34801561054c57600080fd5b506101fe61055b366004611eb8565b6113a4565b34801561056c57600080fd5b506101fe60035481565b6101fe610584366004611e53565b6113c5565b34801561059557600080fd5b5061022c6105a4366004611eb8565b611a96565b3480156105b557600080fd5b5061022c6105c4366004611dd4565b611b52565b73ffffffffffffffffffffffffffffffffffffffff81166000908152600b602090815260409182902080548351818402810184019094528084526060939283018282801561063657602002820191906000526020600020905b815481526020019060010190808311610622575b50505050509050919050565b60005473ffffffffffffffffffffffffffffffffffffffff1633146106ae5760405162461bcd60e51b815260206004820181905260248201527f4f776e61626c653a2063616c6c6572206973206e6f7420746865206f776e657260448201526064015b60405180910390fd5b600554156107015760055460405173ffffffffffffffffffffffffffffffffffffffff83169180156108fc02916000818181858888f193505050501580156106fa573d6000803e3d6000fd5b5060006005555b60065460015b818111610857576000600661071c8385611fa1565b8154811061073a57634e487b7160e01b600052603260045260246000fd5b600091825260208083209091015473ffffffffffffffffffffffffffffffffffffffff168083526007909152604090912054909150801561081f576040517fa9059cbb00000000000000000000000000000000000000000000000000000000815273ffffffffffffffffffffffffffffffffffffffff86811660048301526024820183905283169063a9059cbb90604401602060405180830381600087803b1580156107e557600080fd5b505af11580156107f9573d6000803e3d6000fd5b505050506040513d601f19601f8201168201806040525081019061081d9190611e9c565b505b5073ffffffffffffffffffffffffffffffffffffffff166000908152600760205260408120558061084f81611fb8565b915050610707565b50604080516000815260208101918290525161087591600691611cfa565b505050565b6000818152600a60205260409020600301544210156108db5760405162461bcd60e51b815260206004820152601160248201527f546f6b656e7320617265206c6f636b656400000000000000000000000000000060448201526064016106a5565b6000818152600a602052604090206004015460ff161561093d5760405162461bcd60e51b815260206004820152601860248201527f546f6b656e7320616c72656164792077697468647261776e000000000000000060448201526064016106a5565b6000818152600a602052604090206001015473ffffffffffffffffffffffffffffffffffffffff1633146109d95760405162461bcd60e51b815260206004820152602e60248201527f43616e2077697468647261772066726f6d20746865206164647265737320757360448201527f656420666f72206c6f636b696e6700000000000000000000000000000000000060648201526084016106a5565b6000818152600a6020526040908190208054600182015460029092015492517fa9059cbb00000000000000000000000000000000000000000000000000000000815273ffffffffffffffffffffffffffffffffffffffff9283166004820181905260248201859052929091169290839063a9059cbb90604401602060405180830381600087803b158015610a6c57600080fd5b505af1158015610a80573d6000803e3d6000fd5b505050506040513d601f19601f82011682018060405250810190610aa49190611e9c565b610af05760405162461bcd60e51b815260206004820152601960248201527f4661696c656420746f207472616e7366657220746f6b656e730000000000000060448201526064016106a5565b6000848152600a6020908152604080832060040180547fffffffffffffffffffffffffffffffffffffffffffffffffffffffffffffff0016600117905573ffffffffffffffffffffffffffffffffffffffff86168352600d8252808320338452909152902054610b608183611c4e565b73ffffffffffffffffffffffffffffffffffffffff8086166000908152600d602090815260408083203384528252808320949094559186168152600b90915290812054819081610bb1600183611fa1565b67ffffffffffffffff811115610bd757634e487b7160e01b600052604160045260246000fd5b604051908082528060200260200182016040528015610c00578160200160208202803683370190505b509050600092505b81831015610da85773ffffffffffffffffffffffffffffffffffffffff87166000908152600b6020526040902080548a919085908110610c5857634e487b7160e01b600052603260045260246000fd5b90600052602060002001541415610d1a578293505b610c78600183611fa1565b841015610d155773ffffffffffffffffffffffffffffffffffffffff87166000908152600b60205260409020610caf856001611f2c565b81548110610ccd57634e487b7160e01b600052603260045260246000fd5b9060005260206000200154818581518110610cf857634e487b7160e01b600052603260045260246000fd5b602090810291909101015283610d0d81611fb8565b945050610c6d565b610da8565b73ffffffffffffffffffffffffffffffffffffffff87166000908152600b60205260409020805484908110610d5f57634e487b7160e01b600052603260045260246000fd5b9060005260206000200154818481518110610d8a57634e487b7160e01b600052603260045260246000fd5b60200260200101818152505082610da081611fb8565b935050610c08565b73ffffffffffffffffffffffffffffffffffffffff87166000908152600b602090815260409091208251610dde92840190611d84565b5073ffffffffffffffffffffffffffffffffffffffff88166000908152600c602052604081205490610e11600183611fa1565b67ffffffffffffffff811115610e3757634e487b7160e01b600052604160045260246000fd5b604051908082528060200260200182016040528015610e60578160200160208202803683370190505b509050600094505b818510156110085773ffffffffffffffffffffffffffffffffffffffff8a166000908152600c6020526040902080548c919087908110610eb857634e487b7160e01b600052603260045260246000fd5b90600052602060002001541415610f7a578495505b610ed8600183611fa1565b861015610f755773ffffffffffffffffffffffffffffffffffffffff8a166000908152600c60205260409020610f0f876001611f2c565b81548110610f2d57634e487b7160e01b600052603260045260246000fd5b9060005260206000200154818781518110610f5857634e487b7160e01b600052603260045260246000fd5b602090810291909101015285610f6d81611fb8565b965050610ecd565b611008565b73ffffffffffffffffffffffffffffffffffffffff8a166000908152600c60205260409020805486908110610fbf57634e487b7160e01b600052603260045260246000fd5b9060005260206000200154818681518110610fea57634e487b7160e01b600052603260045260246000fd5b6020026020010181815250508461100081611fb8565b955050610e68565b73ffffffffffffffffffffffffffffffffffffffff8a166000908152600c60209081526040909120825161103e92840190611d84565b508873ffffffffffffffffffffffffffffffffffffffff168a73ffffffffffffffffffffffffffffffffffffffff167f6337ed398c0e8467698c581374fdce4db14922df487b5a39483079f5f59b60a48a60405161109e91815260200190565b60405180910390a35050505050505050505050565b600c60205281600052604060002081815481106110cf57600080fd5b90600052602060002001600091509150505481565b600b60205281600052604060002081815481106110cf57600080fd5b6060600980548060200260200160405190810160405280929190818152602001828054801561114e57602002820191906000526020600020905b81548152602001906001019080831161113a575b5050505050905090565b60005473ffffffffffffffffffffffffffffffffffffffff1633146111bf5760405162461bcd60e51b815260206004820181905260248201527f4f776e61626c653a2063616c6c6572206973206e6f7420746865206f776e657260448201526064016106a5565b6111c96000611c61565b565b60005473ffffffffffffffffffffffffffffffffffffffff1633146112325760405162461bcd60e51b815260206004820181905260248201527f4f776e61626c653a2063616c6c6572206973206e6f7420746865206f776e657260448201526064016106a5565b600081116112825760405162461bcd60e51b815260206004820152601460248201527f50657263656e7420697320746f6f20736d616c6c00000000000000000000000060448201526064016106a5565b600355565b73ffffffffffffffffffffffffffffffffffffffff81166000908152600c602090815260409182902080548351818402810184019094528084526060939283018282801561063657602002820191906000526020600020908154815260200190600101908083116106225750505050509050919050565b6040517f70a0823100000000000000000000000000000000000000000000000000000000815230600482015260009073ffffffffffffffffffffffffffffffffffffffff8316906370a082319060240160206040518083038186803b15801561136657600080fd5b505afa15801561137a573d6000803e3d6000fd5b505050506040513d601f19601f8201168201806040525081019061139e9190611ed0565b92915050565b600981815481106113b457600080fd5b600091825260209091200154905081565b600080841161143b5760405162461bcd60e51b8152602060048201526024808201527f546f6b656e7320616d6f756e74206d757374206265206772656174657220746860448201527f616e20300000000000000000000000000000000000000000000000000000000060648201526084016106a5565b6402540be40083106114b55760405162461bcd60e51b815260206004820152603360248201527f556e69782074696d657374616d70206d75737420626520696e207365636f6e6460448201527f732c206e6f74206d696c6c697365636f6e64730000000000000000000000000060648201526084016106a5565b4283116115045760405162461bcd60e51b815260206004820152601d60248201527f556e6c6f636b2074696d65206d75737420626520696e2066757475726500000060448201526064016106a5565b811580611512575060025434115b61155e5760405162461bcd60e51b815260206004820152601460248201527f4b435320666565206e6f742070726f766964656400000000000000000000000060448201526064016106a5565b6040517f095ea7b30000000000000000000000000000000000000000000000000000000081523060048201526024810185905273ffffffffffffffffffffffffffffffffffffffff86169063095ea7b390604401602060405180830381600087803b1580156115cc57600080fd5b505af11580156115e0573d6000803e3d6000fd5b505050506040513d601f19601f820116820180604052508101906116049190611e9c565b6116505760405162461bcd60e51b815260206004820152601860248201527f4661696c656420746f20617070726f766520746f6b656e73000000000000000060448201526064016106a5565b6040517f23b872dd0000000000000000000000000000000000000000000000000000000081523360048201523060248201526044810185905273ffffffffffffffffffffffffffffffffffffffff8616906323b872dd90606401602060405180830381600087803b1580156116c457600080fd5b505af11580156116d8573d6000803e3d6000fd5b505050506040513d601f19601f820116820180604052508101906116fc9190611e9c565b61176e5760405162461bcd60e51b815260206004820152602360248201527f4661696c656420746f207472616e7366657220746f6b656e7320746f206c6f6360448201527f6b6572000000000000000000000000000000000000000000000000000000000060648201526084016106a5565b83821561179a576004546117829034611cd6565b6004556005546117929034611cd6565b6005556118bf565b60006117bd6103e86117b760035485611ce290919063ffffffff16565b90611cee565b90506117c98282611c4e565b73ffffffffffffffffffffffffffffffffffffffff881660009081526007602052604090205490925061186757600680546001810182556000919091527ff652222313e28459528d920b65115c16c04f3efc82aaedc97be59f3f377c0d3f0180547fffffffffffffffffffffffff00000000000000000000000000000000000000001673ffffffffffffffffffffffffffffffffffffffff89161790555b73ffffffffffffffffffffffffffffffffffffffff87166000908152600760205260409020546118979082611cd6565b73ffffffffffffffffffffffffffffffffffffffff8816600090815260076020526040902055505b73ffffffffffffffffffffffffffffffffffffffff86166000908152600d602090815260408083203384529091529020546118fa9086611cd6565b73ffffffffffffffffffffffffffffffffffffffff87166000908152600d602090815260408083203380855292528220929092556008805490919061193e90611fb8565b91829055506000818152600a60209081526040808320805473ffffffffffffffffffffffffffffffffffffffff8d81167fffffffffffffffffffffffff00000000000000000000000000000000000000009283168117845560018085018054938b16939094168317909355600284018a9055600384018d9055600490930180547fffffffffffffffffffffffffffffffffffffffffffffffffffffffffffffff00169055600980548084019091557f6e1540171b6c0c960b71a7020d9f60077f6af931a8bbf590da0223dacf75c7af018790558552600b84528285208054808301825590865284862001869055818552600c84528285208054918201815585529383902090930184905560085481518b81529283018a90529082015291945033917fa6782d3322abbfbe850e6d5c5c78e8e1df603ea07608bb9a62dd83f40d4feccc9060600160405180910390a35050949350505050565b60005473ffffffffffffffffffffffffffffffffffffffff163314611afd5760405162461bcd60e51b815260206004820181905260248201527f4f776e61626c653a2063616c6c6572206973206e6f7420746865206f776e657260448201526064016106a5565b60008111611b4d5760405162461bcd60e51b815260206004820152601060248201527f46656520697320746f6f20736d616c6c0000000000000000000000000000000060448201526064016106a5565b600255565b60005473ffffffffffffffffffffffffffffffffffffffff163314611bb95760405162461bcd60e51b815260206004820181905260248201527f4f776e61626c653a2063616c6c6572206973206e6f7420746865206f776e657260448201526064016106a5565b73ffffffffffffffffffffffffffffffffffffffff8116611c425760405162461bcd60e51b815260206004820152602660248201527f4f776e61626c653a206e6577206f776e657220697320746865207a65726f206160448201527f646472657373000000000000000000000000000000000000000000000000000060648201526084016106a5565b611c4b81611c61565b50565b6000611c5a8284611fa1565b9392505050565b6000805473ffffffffffffffffffffffffffffffffffffffff8381167fffffffffffffffffffffffff0000000000000000000000000000000000000000831681178455604051919092169283917f8be0079c531659141344cd1fd0a4f28419497f9722a3daafe3b4186f6b6457e09190a35050565b6000611c5a8284611f2c565b6000611c5a8284611f64565b6000611c5a8284611f44565b828054828255906000526020600020908101928215611d74579160200282015b82811115611d7457825182547fffffffffffffffffffffffff00000000000000000000000000000000000000001673ffffffffffffffffffffffffffffffffffffffff909116178255602090920191600190910190611d1a565b50611d80929150611dbf565b5090565b828054828255906000526020600020908101928215611d74579160200282015b82811115611d74578251825591602001919060010190611da4565b5b80821115611d805760008155600101611dc0565b600060208284031215611de5578081fd5b8135611c5a81612007565b60008060408385031215611e02578081fd5b8235611e0d81612007565b91506020830135611e1d81612007565b809150509250929050565b60008060408385031215611e3a578182fd5b8235611e4581612007565b946020939093013593505050565b60008060008060808587031215611e68578182fd5b8435611e7381612007565b935060208501359250604085013591506060850135611e9181612029565b939692955090935050565b600060208284031215611ead578081fd5b8151611c5a81612029565b600060208284031215611ec9578081fd5b5035919050565b600060208284031215611ee1578081fd5b5051919050565b6020808252825182820181905260009190848201906040850190845b81811015611f2057835183529284019291840191600101611f04565b50909695505050505050565b60008219821115611f3f57611f3f611ff1565b500190565b600082611f5f57634e487b7160e01b81526012600452602481fd5b500490565b6000817fffffffffffffffffffffffffffffffffffffffffffffffffffffffffffffffff0483118215151615611f9c57611f9c611ff1565b500290565b600082821015611fb357611fb3611ff1565b500390565b60007fffffffffffffffffffffffffffffffffffffffffffffffffffffffffffffffff821415611fea57611fea611ff1565b5060010190565b634e487b7160e01b600052601160045260246000fd5b73ffffffffffffffffffffffffffffffffffffffff81168114611c4b57600080fd5b8015158114611c4b57600080fdfea2646970667358221220f284c87c9c478d41d7202e56ccbd6d3db3e49d46bbc13ed00c6cdc9854e7c11964736f6c63430008040033",
  "immutableReferences": {},
  "source": "// SPDX-License-Identifier: UNLICENSED\r\n\r\npragma solidity ^0.8.4;\r\n\r\nimport \"@openzeppelin/contracts/access/Ownable.sol\";\r\nimport \"@openzeppelin/contracts/utils/math/SafeMath.sol\";\r\nimport \"@openzeppelin/contracts/security/ReentrancyGuard.sol\";\r\nimport \"@openzeppelin/contracts/token/ERC20/IERC20.sol\";\r\n\r\ncontract KuLocker is Ownable, ReentrancyGuard {\r\n    using SafeMath for uint256;\r\n\r\n    struct Items {\r\n        address tokenAddress;\r\n        address withdrawalAddress;\r\n        uint256 tokenAmount;\r\n        uint256 unlockTime;\r\n        bool withdrawn;\r\n    }\r\n\r\n    uint256 public kcsFee = 5 ether;\r\n    // base 1000, 1% = value * 10 / 1000\r\n    uint256 public lpFeePercent = 10;\r\n\r\n    // for statistic\r\n    uint256 public totalKcsFees = 0;\r\n    // withdrawable values\r\n    uint256 public remainingKcsFees = 0;\r\n    address[] tokenAddressesWithFees;\r\n    mapping(address => uint256) public tokensFees;\r\n\r\n    uint256 public depositId;\r\n    uint256[] public allDepositIds;\r\n\r\n    mapping(uint256 => Items) public lockedToken;\r\n\r\n    mapping(address => uint256[]) public depositsByWithdrawalAddress;\r\n    mapping(address => uint256[]) public depositsByTokenAddress;\r\n\r\n    // Token -> { sender1: locked amount, ... }\r\n    mapping(address => mapping(address => uint256)) public walletTokenBalance;\r\n\r\n    event TokensLocked(address indexed tokenAddress, address indexed sender, uint256 amount, uint256 unlockTime, uint256 depositId);\r\n    event TokensWithdrawn(address indexed tokenAddress, address indexed receiver, uint256 amount);\r\n\r\n    function lockTokens(\r\n        address _tokenAddress,\r\n        uint256 _amount,\r\n        uint256 _unlockTime,\r\n        bool _feeInKcs\r\n    ) external payable returns (uint256 _id) {\r\n        require(_amount > 0, 'Tokens amount must be greater than 0');\r\n        require(_unlockTime < 10000000000, 'Unix timestamp must be in seconds, not milliseconds');\r\n        require(_unlockTime > block.timestamp, 'Unlock time must be in future');\r\n        require(!_feeInKcs || msg.value > kcsFee, 'KCS fee not provided');\r\n\r\n        require(IERC20(_tokenAddress).approve(address(this), _amount), 'Failed to approve tokens');\r\n        require(IERC20(_tokenAddress).transferFrom(msg.sender, address(this), _amount), 'Failed to transfer tokens to locker');\r\n\r\n        uint256 lockAmount = _amount;\r\n        if (_feeInKcs) {\r\n            totalKcsFees = totalKcsFees.add(msg.value);\r\n            remainingKcsFees = remainingKcsFees.add(msg.value);\r\n        } else {\r\n            uint256 fee = lockAmount.mul(lpFeePercent).div(1000);\r\n            lockAmount = lockAmount.sub(fee);\r\n\r\n            if (tokensFees[_tokenAddress] == 0) {\r\n                tokenAddressesWithFees.push(_tokenAddress);\r\n            }\r\n            tokensFees[_tokenAddress] = tokensFees[_tokenAddress].add(fee);\r\n        }\r\n\r\n        walletTokenBalance[_tokenAddress][msg.sender] = walletTokenBalance[_tokenAddress][msg.sender].add(_amount);\r\n\r\n        address _withdrawalAddress = msg.sender;\r\n        _id = ++depositId;\r\n        lockedToken[_id].tokenAddress = _tokenAddress;\r\n        lockedToken[_id].withdrawalAddress = _withdrawalAddress;\r\n        lockedToken[_id].tokenAmount = lockAmount;\r\n        lockedToken[_id].unlockTime = _unlockTime;\r\n        lockedToken[_id].withdrawn = false;\r\n\r\n        allDepositIds.push(_id);\r\n        depositsByWithdrawalAddress[_withdrawalAddress].push(_id);\r\n        depositsByTokenAddress[_tokenAddress].push(_id);\r\n\r\n        emit TokensLocked(_tokenAddress, msg.sender, _amount, _unlockTime, depositId);\r\n    }\r\n\r\n    function withdrawTokens(uint256 _id) external {\r\n        require(block.timestamp >= lockedToken[_id].unlockTime, 'Tokens are locked');\r\n        require(!lockedToken[_id].withdrawn, 'Tokens already withdrawn');\r\n        require(msg.sender == lockedToken[_id].withdrawalAddress, 'Can withdraw from the address used for locking');\r\n\r\n        address tokenAddress = lockedToken[_id].tokenAddress;\r\n        address withdrawalAddress = lockedToken[_id].withdrawalAddress;\r\n        uint256 amount = lockedToken[_id].tokenAmount;\r\n\r\n        require(IERC20(tokenAddress).transfer(withdrawalAddress, amount), 'Failed to transfer tokens');\r\n\r\n        lockedToken[_id].withdrawn = true;\r\n        uint256 previousBalance = walletTokenBalance[tokenAddress][msg.sender];\r\n        walletTokenBalance[tokenAddress][msg.sender] = previousBalance.sub(amount);\r\n\r\n        // Remove depositId from withdrawal addresses mapping\r\n        uint256 i;\r\n        uint256 j;\r\n        uint256 byWLength = depositsByWithdrawalAddress[withdrawalAddress].length;\r\n        uint256[] memory newDepositsByWithdrawal = new uint256[](byWLength - 1);\r\n\r\n        for (j = 0; j < byWLength; j++) {\r\n            if (depositsByWithdrawalAddress[withdrawalAddress][j] == _id) {\r\n                for (i = j; i < byWLength - 1; i++) {\r\n                    newDepositsByWithdrawal[i] = depositsByWithdrawalAddress[withdrawalAddress][i + 1];\r\n                }\r\n                break;\r\n            } else {\r\n                newDepositsByWithdrawal[j] = depositsByWithdrawalAddress[withdrawalAddress][j];\r\n            }\r\n        }\r\n        depositsByWithdrawalAddress[withdrawalAddress] = newDepositsByWithdrawal;\r\n\r\n        // Remove depositId from tokens mapping\r\n        uint256 byTLength = depositsByTokenAddress[tokenAddress].length;\r\n        uint256[] memory newDepositsByToken = new uint256[](byTLength - 1);\r\n        for (j = 0; j < byTLength; j++) {\r\n            if (depositsByTokenAddress[tokenAddress][j] == _id) {\r\n                for (i = j; i < byTLength - 1; i++) {\r\n                    newDepositsByToken[i] = depositsByTokenAddress[tokenAddress][i + 1];\r\n                }\r\n                break;\r\n            } else {\r\n                newDepositsByToken[j] = depositsByTokenAddress[tokenAddress][j];\r\n            }\r\n        }\r\n        depositsByTokenAddress[tokenAddress] = newDepositsByToken;\r\n\r\n        emit TokensWithdrawn(tokenAddress, withdrawalAddress, amount);\r\n    }\r\n\r\n    function getTotalTokenBalance(address _tokenAddress) view public returns (uint256)\r\n    {\r\n        return IERC20(_tokenAddress).balanceOf(address(this));\r\n    }\r\n\r\n    function getTokenBalanceByAddress(address _tokenAddress, address _walletAddress) view public returns (uint256)\r\n    {\r\n        return walletTokenBalance[_tokenAddress][_walletAddress];\r\n    }\r\n\r\n    function getAllDepositIds() view public returns (uint256[] memory)\r\n    {\r\n        return allDepositIds;\r\n    }\r\n\r\n    function getDepositDetails(uint256 _id) view public returns (address, address, uint256, uint256, bool)\r\n    {\r\n        return (lockedToken[_id].tokenAddress, lockedToken[_id].withdrawalAddress, lockedToken[_id].tokenAmount,\r\n        lockedToken[_id].unlockTime, lockedToken[_id].withdrawn);\r\n    }\r\n\r\n    function getDepositsByWithdrawalAddress(address _withdrawalAddress) view public returns (uint256[] memory)\r\n    {\r\n        return depositsByWithdrawalAddress[_withdrawalAddress];\r\n    }\r\n\r\n    function getDepositsByTokenAddress(address _tokenAddress) view public returns (uint256[] memory)\r\n    {\r\n        return depositsByTokenAddress[_tokenAddress];\r\n    }\r\n\r\n    function setKcsFee(uint256 fee) external onlyOwner {\r\n        require(fee > 0, 'Fee is too small');\r\n        kcsFee = fee;\r\n    }\r\n\r\n    function setLpFee(uint256 percent) external onlyOwner {\r\n        require(percent > 0, 'Percent is too small');\r\n        lpFeePercent = percent;\r\n    }\r\n\r\n    function withdrawFees(address payable withdrawalAddress) external onlyOwner {\r\n        if (remainingKcsFees > 0) {\r\n            withdrawalAddress.transfer(remainingKcsFees);\r\n            remainingKcsFees = 0;\r\n        }\r\n        uint len = tokenAddressesWithFees.length;\r\n        for (uint i = 1; i <= len; i++) {\r\n            address tokenAddress = tokenAddressesWithFees[len - i];\r\n            uint256 amount = tokensFees[tokenAddress];\r\n            if (amount > 0) {\r\n                IERC20(tokenAddress).transfer(withdrawalAddress, amount);\r\n            }\r\n            delete tokensFees[tokenAddress];\r\n        }\r\n\r\n        tokenAddressesWithFees = new address[](0);\r\n    }\r\n}",
  "sourcePath": "C:\\Users\\aceso\\Desktop\\Kulocker\\contracts\\KuLocker.sol",
  "compiler": {
    "name": "solc",
    "version": "0.8.4+commit.c7e474f2.Emscripten.clang"
  },
  "schemaVersion": "3.4.2",
  "updatedAt": "2021-08-23T09:57:22.774Z",
  "networkType": "ethereum",
  "devdoc": {
    "kind": "dev",
    "methods": {
      "owner()": {
        "details": "Returns the address of the current owner."
      },
      "renounceOwnership()": {
        "details": "Leaves the contract without owner. It will not be possible to call `onlyOwner` functions anymore. Can only be called by the current owner. NOTE: Renouncing ownership will leave the contract without an owner, thereby removing any functionality that is only available to the owner."
      },
      "transferOwnership(address)": {
        "details": "Transfers ownership of the contract to a new account (`newOwner`). Can only be called by the current owner."
      }
    },
    "version": 1
  },
  "userdoc": {
    "kind": "user",
    "methods": {},
    "version": 1
  }
}